:1000000008308A0000280000FF00030E8301A600CC
:100010007F08A5000A08AD008A01A50E0408A70004
:100020002008A8002108A9002208AA002308AB0084
:100030002408AC00831383128B1D20280B1833284F
:10004000270884002808A0002908A1002A08A20087
:100050002B08A3002C08A4002D088A00260E83007C
:10006000FF0E7F0E09008A114B2A0A108A100A110E
:10007000820728340C34013406340A108A100A111D
:1000800082072D342D347C3441343A3425343234D3
:1000900075342034203400340A108A100A11820783
:1000A0002D342D347C3442343A3425343234753492
:1000B00000340A108A100A1182072D342D347C3442
:1000C00041343A342534323475342A342A340034F5
:1000D0000A108A100A11820720343E342D342D3440
:1000E0002D34003420342D343E342D342D3400345E
:1000F00020342D342D343E342D34003420342D342E
:100100002D342D343E340034203421342134213434
:10011000213400342034583458345834583400349E
:100120000A108A100A118207463445344334483491
:100130004134203445344D34203425343234753440
:10014000203400340A108A100A1182070C34493412
:100150006E3469346334693461346C3469347A34AC
:1001600061346E3464346F342E342E342E340034C3
:10017000F030831688008312081500000814000070
:100180000808080E0F39D6000810000008140808E7
:10019000080E0F39D500081000308316880083122E
:1001A000560EA000F030A00520085504A100003430
:1001B000560EF039A0000F3008052004880000001A
:1001C0000814081000348810B8202108D500D51B69
:1001D000E428531C881053188814000008110000EC
:1001E0000810540ED5000F30D5055508D600D8207C
:1001F00054080F39D500D600D8200034500B0129FF
:1002000004294030D1000529D10101304F02D10726
:1002100051088038D200D3015208D400E3200034C2
:100220004F08A1014E02031818294E08A0002429E6
:10023000A0010830D000CE0DA00D4F0820020318F9
:10024000A000A10DD00B1B2900344E080C3A031955
:100250003029063A03193A29023A03194029452957
:10026000D3010130D400E320A630A000A00B362932
:1002700000004B290130CF000230D000FE204B2976
:10028000D3011030D400E3204B290130D3004E08B5
:10029000D400E3204B29003421084C08CE00643000
:1002A000CF0010212008CC0021083030031D5F2929
:1002B0004D186529CD1965294D1A20306129CD11B8
:1002C0004D12A1072108CE0025214C08CE000A308E
:1002D000CF0010212008CC0021083030031D7429E4
:1002E000CD1978294D1A2030A1072108CE002521EB
:1002F0003030CC074C08CE0025210034B708031D50
:10030000E0290130CF00D000FE20B1080319A22956
:100310003308CC000130CD004C217C30CE002521AB
:100320004130CE0025213A30CE0025212F08CC00C7
:100330001130CD004C212030CE0025212030CE00C0
:100340002521B829CB014B083D20CB0AA000CE00C7
:10035000252105304B02031DA3292F08CC001130A5
:10036000CD004C212030CE0025212030CE0025218B
:10037000B2080319CF293408CC000130CD004C213C
:100380007C30CE0025214230CE0025213A30CE00EF
:1003900025213008CC001130CD004C21DF29CB01C4
:1003A0004B084C20CB0AA000CE00252105304B0283
:1003B000031DD0293008CC001130CD004C213E2A3D
:1003C0000130CF00D000FE20B1080319012A330804
:1003D000CC000130CD004C217C30CE0025214130B5
:1003E000CE0025213A30CE0025212F08CC00113037
:1003F000CD004C212A30CE0025212A30CE002521E7
:10040000172ACB014B085920CB0AA000CE0025218A
:1004100005304B02031D022A2F08CC001130CD00FD
:100420004C212A30CE0025212A30CE002521B208C9
:1004300003192E2A3408CC000130CD004C217C3029
:10044000CE0025214230CE0025213A30CE00252194
:100450003008CC001130CD004C213E2ACB014B0896
:100460004C20CB0AA000CE00252105304B02031DF5
:100470002F2A3008CC001130CD004C2100344B30F5
:100480008400000803194A2A5230A000A00B462A13
:10049000800B442A00348316061600308312061A95
:1004A0000130003A031D5C2AB10803195C2AB50823
:1004B00003195C2AAF0A7E21831686160030831248
:1004C000861A0130003A031D6D2AB20803196D2AFD
:1004D000B60803196D2AB00A7E218316061700306C
:1004E0008312061B0130003A031D072BB708031DBA
:1004F000C12A0130B70038123808831687008312EA
:1005000007127D30CB003F2238123808831687004F
:10051000831207167D30CB003F223812380883162D
:100520008700831207127D30CB003F223812380833
:1005300083168700831207167D30CB003F223812C6
:10054000380883168700831207127D30CB003F22C4
:100550003812380883168700831207167D30CB00C7
:100560003F223812380883168700831207127D3025
:10057000CB003F22381238088316870083120716F3
:10058000072BB70138123808831687008312071229
:100590007D30CB003F223812380883168700831243
:1005A00007167D30CB003F223812380883168700AB
:1005B000831207127D30CB003F2238123808831691
:1005C0008700831207167D30CB003F22381238088F
:1005D00083168700831207127D30CB003F2238122A
:1005E000380883168700831207167D30CB003F2220
:1005F0003812380883168700831207127D30CB002B
:100600003F223812380883168700831207160B1012
:100610008A112028A001A1013F0803104018A0075B
:10062000A00CA10CC018A007A00CA10C4019A00799
:10063000A00CA10CC019A007A00CA10C401AA00787
:10064000A00CA10CC01AA007A00CA10C401BA00775
:0E065000A00CA10CC01BA007A00CA10C003434
:1010000084011F30830583161F149F141F159F1121
:101010008312AF01B001B101B201B301B401B50156
:10102000B601B701FF30B80083168811831288110A
:101030000030831688008312881008110810AE0152
:101040008B1BAE178B130F30CB008A113F228A15F2
:10105000AE1B8B170130BB003B08033C031C482828
:10106000AE018B1BAE178B130330D6008A11D8202C
:101070008A15AE1B8B17AE018B1BAE178B13053079
:10108000CB008A113F228A15AE1B8B17BB0A2C2876
:10109000AE018B1BAE178B130230D6008A11D820FD
:1010A0008A15AE1B8B17BB013B08033C031C6B2846
:1010B0003B088A1135208A15BC00AE018B1BAE1788
:1010C0008B13D3013C08D4008A11E3208A15AE1B90
:1010D0008B17BB0A5428BB013B088A11A2208A1532
:1010E000003803197F28BB0AAE018B1BAE178B1388
:1010F000CE008A1125218A15AE1B8B176C28023071
:10110000BB00AE018B1BAE178B13FA30CB008A11DC
:101110003F228A15AE1B8B17BB0B8128AE018B1BA0
:10112000AE178B130C30CE008A1125218A15AE1B09
:101130008B17AE018B1BAE178B138A117E218A157C
:10114000AE1B8B178B15C0308B04B7010030B80075
:10115000831687005C30831287000130B100B20132
:10116000B301381238088316870083120712AE01C4
:101170008B1BAE178B136430CB008A113F228A156C
:10118000AE1B8B1738123808831687008312071698
:101190000130B500B90139080E3C031CEA280430BF
:1011A000BB00AE018B1BAE178B13FA30CB008A113C
:1011B0003F228A15AE1B8B17BB0BD128B30AAE0199
:1011C0008B1BAE178B138A117E218A15AE1B8B17D2
:1011D000B90ACB28B5012F08BB003008BC00BC08F9
:1011E000031DF4280130BC003B08BF000A30C000DA
:1011F0008A110A238A15AE018B1BAE178B132108A7
:10120000CE003C08CF008A1110218A15AE1B8B1727
:101210002108BD003D080D3C031C12291E30A10011
:101220001D291D293D08103C031C1A292330A1004B
:101230001D291D292830A1001D292108BA000F30C1
:10124000B9003A083902031840290430BB00AE0146
:101250008B1BAE178B13FA30CB008A113F228A15F5
:10126000AE1B8B17BB0B2729B30AAE018B1BAE1726
:101270008B138A117E218A15AE1B8B17B90A21297F
:10128000B1010030B800831687005A3083128700FE
:101290000C30BB00AE018B1BAE178B13FA30CB00AA
:1012A0008A113F228A15AE1B8B17BB0B4A29B0014E
:1012B000370B762B0030B80083168700513083122D
:1012C00087008316881183128815AE018B1BAE1719
:1012D0008B130C30CE008A1125218A15AE1B8B177B
:1012E0000A30BB00AE018B1BAE178B130130CF0051
:1012F000D0008A11FE208A15AE1B8B17BC013C085A
:101300008A1190208A15BC0AA000AE018B1BAE1773
:101310008B132008CE008A1125218A15AE1B8B174E
:1013200009303C02031D7F29AE018B1BAE178B13C6
:101330003B08CC001130CD008A114C218A15AE1B20
:101340008B17AE018B1BAE178B132030CE008A118A
:1013500025218A15AE1B8B170430BD002D30AE0140
:101360008B1BAE178B13CE008A1125218A15AE1B5D
:101370008B17BD0BAE29AE018B1BAE178B130C3038
:10138000CF000130D0008A11FE208A15AE1B8B17CA
:101390003B08063C03183D2A3B080A3C031C3D2A37
:1013A0003B080A3C0339BE00BF000630C0008A116A
:1013B0000A238A152108BF00C00040088A1168204E
:1013C0008A1500380319F029C00AAE018B1BAE172D
:1013D0008B13CE008A1125218A15AE1B8B17DD29B0
:1013E0003812380883168700831207120230BC00B7
:1013F000AE018B1BAE178B139630CB008A113F22A8
:101400008A15AE1B8B17BC0BF829381238088316C7
:10141000870083120716AE018B1BAE178B13C830E3
:10142000CB008A113F228A15AE1B8B173812380861
:1014300083168700831207120230BC00AE018B1B9B
:10144000AE178B139630CB008A113F228A15AE1B44
:101450008B17BC0B1E2A381238088316870083129C
:101460000716AE018B1BAE178B13C830CB008A1149
:101470003F228A15AE1B8B17692B3B08023C0318D1
:10148000B22A3B08063C031CB22A3B080A3C03393B
:10149000BE00BF000630C0008A110A238A15210849
:1014A000BF00C00040088A1168208A15003803195F
:1014B000652AC00AAE018B1BAE178B13CE008A11B2
:1014C00025218A15AE1B8B17522A3812380883162D
:1014D0008700831207120230BC00AE018B1BAE17CF
:1014E0008B139630CB008A113F228A15AE1B8B17C7
:1014F000BC0B6D2A38123808831687008312071632
:10150000AE018B1BAE178B13C830CB008A113F2264
:101510008A15AE1B8B173812380883168700831282
:1015200007120230BC00AE018B1BAE178B13963036
:10153000CB008A113F228A15AE1B8B17BC0B932A56
:10154000381238088316870083120716AE018B1BEA
:10155000AE178B13C830CB008A113F228A15AE1B01
:101560008B17692B3B08023C0319B82A3B0B382B1D
:101570001830BC003C088A1168208A15003803190D
:10158000CD2ABC0AAE018B1BAE178B13CE008A117D
:1015900025218A15AE1B8B17BA2A381238088316F4
:1015A000870083120712AE018B1BAE178B136430BA
:1015B000CB008A113F228A15AE1B8B1738123808D0
:1015C0008316870083120716AE018B1BAE178B1391
:1015D000C830CB008A113F228A15AE1B8B173812F8
:1015E00038088316870083120712AE018B1BAE17D3
:1015F0008B136430CB008A113F228A15AE1B8B17E8
:10160000381238088316870083120716AE018B1B29
:10161000AE178B13C830CB008A113F228A15AE1B40
:101620008B17381238088316870083120712AE0111
:101630008B1BAE178B136430CB008A113F228A15A7
:10164000AE1B8B17381238088316870083120716D3
:101650000230BC00AE018B1BAE178B139630CB0053
:101660008A113F228A15AE1B8B17BC0B2A2B692BC4
:101670001E30BC003C088A1168208A150038031906
:101680004D2BBC0AAE018B1BAE178B13CE008A11FB
:1016900025218A15AE1B8B173A2B38123808831672
:1016A0008700831207120430BC00AE018B1BAE17FB
:1016B0008B13FA30CB008A113F228A15AE1B8B1791
:1016C000BC0B552B38123808831687008312071677
:1016D0006B2BBB0372290030B8008316870059308A
:1016E000831287008316881183128811B701003096
:1016F000B800831687003930831287000130B200AA
:10170000B401381238088316870083120712AE011D
:101710008B1BAE178B136430CB008A113F228A15C6
:10172000AE1B8B17381238088316870083120716F2
:101730000130B600B90139080E3C031CBA2B043045
:10174000BB00AE018B1BAE178B13FA30CB008A1196
:101750003F228A15AE1B8B17BB0BA12BB40AAE011F
:101760008B1BAE178B138A117E218A15AE1B8B172C
:10177000B90A9B2BB6013008BB002F08BC00BC087F
:10178000031DC42B0130BC003B08BF000A30C00061
:101790008A110A238A15AE018B1BAE178B13210801
:1017A000CE003C08CF008A1110218A15AE1B8B1782
:1017B0002108BD003D080D3C031CE22B1E30A1009A
:1017C000ED2BED2B3D08103C031CEA2B2330A10030
:1017D000ED2BED2B2830A100ED2B2108BA000F30A6
:1017E000B9003A0839020318102C0430BB00AE01CE
:1017F0008B1BAE178B13FA30CB008A113F228A1550
:10180000AE1B8B17BB0BF72BB40AAE018B1BAE17AD
:101810008B138A117E218A15AE1B8B17B90AF12B07
:10182000B2010030B8008316870099308312870018
:101830000C30BB00AE018B1BAE178B13FA30CB0004
:101840008A113F228A15AE1B8B17BB0B1A2CAF01D6
:10185000370B462E0030B8008316870051308312B4
:1018600087008316881183128815AE018B1BAE1773
:101870008B130C30CE008A1125218A15AE1B8B17D5
:101880000A30BB00AE018B1BAE178B130130CF00AB
:10189000D0008A11FE208A15AE1B8B17BC013C08B4
:1018A0008A1190208A15BC0AA000AE018B1BAE17CE
:1018B0008B132008CE008A1125218A15AE1B8B17A9
:1018C00009303C02031D4F2CAE018B1BAE178B134E
:1018D0003B08CC001130CD008A114C218A15AE1B7B
:1018E0008B17AE018B1BAE178B132030CE008A11E5
:1018F00025218A15AE1B8B170430BD002D30AE019B
:101900008B1BAE178B13CE008A1125218A15AE1BB7
:101910008B17BD0B7E2CAE018B1BAE178B130C30BF
:10192000CF000130D0008A11FE208A15AE1B8B1724
:101930003B08063C03180D2D3B080A3C031C0D2DEB
:101940003B080A3C0339BE00BF000630C0008A11C4
:101950000A238A152108BF00C00040088A116820A8
:101960008A1500380319C02CC00AAE018B1BAE17B4
:101970008B13CE008A1125218A15AE1B8B17AD2C37
:101980003812380883168700831207120230BC0011
:10199000AE018B1BAE178B139630CB008A113F2202
:1019A0008A15AE1B8B17BC0BC82C3812380883164F
:1019B000870083120716AE018B1BAE178B13C8303E
:1019C000CB008A113F228A15AE1B8B1738123808BC
:1019D00083168700831207120230BC00AE018B1BF6
:1019E000AE178B139630CB008A113F228A15AE1B9F
:1019F0008B17BC0BEE2C3812380883168700831225
:101A00000716AE018B1BAE178B13C830CB008A11A3
:101A10003F228A15AE1B8B17392E3B08023C031858
:101A2000822D3B08063C031C822D3B080A3C0339EF
:101A3000BE00BF000630C0008A110A238A152108A3
:101A4000BF00C00040088A1168208A1500380319B9
:101A5000352DC00AAE018B1BAE178B13CE008A1139
:101A600025218A15AE1B8B17222D381238088316B4
:101A70008700831207120230BC00AE018B1BAE1729
:101A80008B139630CB008A113F228A15AE1B8B1721
:101A9000BC0B3D2D381238088316870083120716B9
:101AA000AE018B1BAE178B13C830CB008A113F22BF
:101AB0008A15AE1B8B1738123808831687008312DD
:101AC00007120230BC00AE018B1BAE178B13963091
:101AD000CB008A113F228A15AE1B8B17BC0B632DDE
:101AE000381238088316870083120716AE018B1B45
:101AF000AE178B13C830CB008A113F228A15AE1B5C
:101B00008B17392E3B08023C0319882D3B0B082EFE
:101B10001830BC003C088A1168208A150038031967
:101B20009D2DBC0AAE018B1BAE178B13CE008A1104
:101B300025218A15AE1B8B178A2D3812380883167B
:101B4000870083120712AE018B1BAE178B13643014
:101B5000CB008A113F228A15AE1B8B17381238082A
:101B60008316870083120716AE018B1BAE178B13EB
:101B7000C830CB008A113F228A15AE1B8B17381252
:101B800038088316870083120712AE018B1BAE172D
:101B90008B136430CB008A113F228A15AE1B8B1742
:101BA000381238088316870083120716AE018B1B84
:101BB000AE178B13C830CB008A113F228A15AE1B9B
:101BC0008B17381238088316870083120712AE016C
:101BD0008B1BAE178B136430CB008A113F228A1502
:101BE000AE1B8B173812380883168700831207162E
:101BF0000230BC00AE018B1BAE178B139630CB00AE
:101C00008A113F228A15AE1B8B17BC0BFA2D392E79
:101C10001E30BC003C088A1168208A150038031960
:101C20001D2EBC0AAE018B1BAE178B13CE008A1182
:101C300025218A15AE1B8B170A2E381238088316F9
:101C40008700831207120430BC00AE018B1BAE1755
:101C50008B13FA30CB008A113F228A15AE1B8B17EB
:101C6000BC0B252E381238088316870083120716FE
:101C70003B2EBB03422C0030B8008316870059303E
:101C8000831287008316881183128811A5286300A8
:02400E00F93F78
:00000001FF
;PIC16F874
