:1000000000308A00E72A0000FF00030E8301A600EB
:100010007F08A5000A08AD008A01A50E0408A70004
:100020002008A8002108A9002208AA002308AB0084
:100030002408AC00831383128B1D20280B1833284F
:10004000270884002808A0002908A1002A08A20087
:100050002B08A3002C08A4002D088A00260E83007C
:10006000FF0E7F0E09008A114B2A0A108A100A110E
:10007000820728340C34013406340A108A100A111D
:1000800082072D342D347C3441343A3425343234D3
:1000900075342034203400340A108A100A11820783
:1000A0002D342D347C3442343A3425343234753492
:1000B00000340A108A100A1182072D342D347C3442
:1000C00041343A342534323475342A342A340034F5
:1000D0000A108A100A11820720343E342D342D3440
:1000E0002D34003420342D343E342D342D3400345E
:1000F00020342D342D343E342D34003420342D342E
:100100002D342D343E340034203421342134213434
:10011000213400342034583458345834583400349E
:100120000A108A100A118207463445344334483491
:100130004134203445344D34203425343234753440
:10014000203400340A108A100A1182070C34493412
:100150006E3469346334693461346C3469347A34AC
:1001600061346E3464346F342E342E342E340034C3
:10017000F030831688008312081500000814000070
:100180000808080E0F39D6000810000008140808E7
:10019000080E0F39D500081000308316880083122E
:1001A000560EA000F030A00520085504A100003430
:1001B000560EF039A0000F3008052004880000001A
:1001C0000814081000348810B8202108D500D51B69
:1001D000E428531C881053188814000008110000EC
:1001E0000810540ED5000F30D5055508D600D8207C
:1001F00054080F39D500D600D8200034500B0129FF
:1002000004294030D1000529D10101304F02D10726
:1002100051088038D200D3015208D400E3200034C2
:100220004F08A1014E02031818294E08A0002429E6
:10023000A0010830D000CE0DA00D4F0820020318F9
:10024000A000A10DD00B1B2900344E080C3A031955
:100250003029063A03193A29023A03194029452957
:10026000D3010130D400E320A630A000A00B362932
:1002700000004B290130CF000230D000FE204B2976
:10028000D3011030D400E3204B290130D3004E08B5
:10029000D400E3204B29003421084C08CE00643000
:1002A000CF0010212008CC0021083030031D5F2929
:1002B0004D186529CD1965294D1A20306129CD11B8
:1002C0004D12A1072108CE0025214C08CE000A308E
:1002D000CF0010212008CC0021083030031D7429E4
:1002E000CD1978294D1A2030A1072108CE002521EB
:1002F0003030CC074C08CE0025210034B708031D50
:10030000E0290130CF00D000FE20B1080319A22956
:100310003308CC000130CD004C217C30CE002521AB
:100320004130CE0025213A30CE0025212F08CC00C7
:100330001130CD004C212030CE0025212030CE00C0
:100340002521B829CB014B083D20CB0AA000CE00C7
:10035000252105304B02031DA3292F08CC001130A5
:10036000CD004C212030CE0025212030CE0025218B
:10037000B2080319CF293408CC000130CD004C213C
:100380007C30CE0025214230CE0025213A30CE00EF
:1003900025213008CC001130CD004C21DF29CB01C4
:1003A0004B084C20CB0AA000CE00252105304B0283
:1003B000031DD0293008CC001130CD004C213E2A3D
:1003C0000130CF00D000FE20B1080319012A330804
:1003D000CC000130CD004C217C30CE0025214130B5
:1003E000CE0025213A30CE0025212F08CC00113037
:1003F000CD004C212A30CE0025212A30CE002521E7
:10040000172ACB014B085920CB0AA000CE0025218A
:1004100005304B02031D022A2F08CC001130CD00FD
:100420004C212A30CE0025212A30CE002521B208C9
:1004300003192E2A3408CC000130CD004C217C3029
:10044000CE0025214230CE0025213A30CE00252194
:100450003008CC001130CD004C213E2ACB014B0896
:100460004C20CB0AA000CE00252105304B02031DF5
:100470002F2A3008CC001130CD004C2100344B30F5
:100480008400000803194A2A5230A000A00B462A13
:10049000800B442A00348316061600308312061A95
:1004A0000130003A031D5C2AB10803195C2AB50823
:1004B00003195C2AAF0A7E21831686160030831248
:1004C000861A0130003A031D6D2AB20803196D2AFD
:1004D000B60803196D2AB00A7E218316061700306C
:1004E0008312061B0130003A031DBF2AB708031D03
:1004F0009D2A0130B700381238088316870083120E
:1005000007126430CB003F22381238088316870068
:1005100083120716FA30CB003F22381238088316B0
:100520008700831207126430CB003F22381238084C
:100530008316870083120716BF2AB70138123808BE
:1005400083168700831207126430CB003F223812D3
:1005500038088316870083120716FA30CB003F2233
:100560003812380883168700831207126430CB00D4
:100570003F223812380883168700831207160B10A3
:100580008A112028A001A1013F0803104018A007EC
:10059000A00CA10CC018A007A00CA10C4019A0072A
:1005A000A00CA10CC019A007A00CA10C401AA00718
:1005B000A00CA10CC01AA007A00CA10C401BA00706
:1005C000A00CA10CC01BA007A00CA10C003484013E
:1005D0001F30830583161F149F141F159F1183124C
:1005E000AF01B001B101B201B301B401B501B6016F
:1005F000B701FF30B80083168811831288110030CC
:10060000831688008312881008110810AE018B1B16
:10061000AE178B130F30CB003F22AE1B8B17013070
:10062000BB003B08033C031C292BAE018B1BAE1700
:100630008B130330D600D820AE1B8B17AE018B1B5B
:10064000AE178B130530CB003F22AE1B8B17BB0AB6
:10065000112BAE018B1BAE178B130230D600D820A6
:10066000AE1B8B17BB013B08033C031C462B3B080E
:100670003520BC00AE018B1BAE178B13D3013C0899
:10068000D400E320AE1B8B17BB0A332BBB013B0806
:10069000A22000380319562BBB0AAE018B1BAE17E4
:1006A0008B13CE002521AE1B8B17472B0230BB00CE
:1006B000AE018B1BAE178B13FA30CB003F22AE1B63
:1006C0008B17BB0B582BAE018B1BAE178B130C304B
:1006D000CE002521AE1B8B17AE018B1BAE178B13E3
:1006E0007E21AE1B8B178B15C0308B04B7010030F9
:1006F000B800831687005C30831287000130B10098
:10070000B201B3013812380883168700831207122A
:10071000AE018B1BAE178B136430CB003F22AE1B98
:100720008B1738123808831687008312071601309A
:10073000B500B90139080E3C031CB52B0430BB00D1
:10074000AE018B1BAE178B13FA30CB003F22AE1BD2
:100750008B17BB0BA02BB30AAE018B1BAE178B13F1
:100760007E21AE1B8B17B90A9A2BB5012F08BB004F
:100770003008BC00BC08031DBF2B0130BC003B0887
:10078000BF000A30C000C222AE018B1BAE178B1314
:100790002108CE003C08CF001021AE1B8B1721088A
:1007A000BD003D080D3C031CD92B1E30A100E42BDD
:1007B000E42B3D08103C031CE12B2330A100E42B6B
:1007C000E42B2830A100E42B2108BA000F30B90037
:1007D0003A0839020318032C0430BB00AE018B1B0E
:1007E000AE178B13FA30CB003F22AE1B8B17BB0B1F
:1007F000EE2BB30AAE018B1BAE178B137E21AE1B03
:100800008B17B90AE82BB1010030B80083168700B6
:100810005A30831287000C30BB00AE018B1BAE1721
:100820008B13FA30CB003F22AE1B8B17BB0B0D2C6A
:10083000B001370B9F2D0030B80083168700513070
:10084000831287008316881183128815AE018B1BD3
:10085000AE178B130C30CE002521AE1B8B170A3040
:10086000BB00AE018B1BAE178B130130CF00D00045
:10087000FE20AE1B8B17BC013C089020BC0AA000D8
:10088000AE018B1BAE178B132008CE002521AE1BAB
:100890008B1709303C02031D3C2CAE018B1BAE179D
:1008A0008B133B08CC001130CD004C21AE1B8B17B5
:1008B000AE018B1BAE178B132030CE002521AE1B53
:1008C0008B170430BD002D30AE018B1BAE178B1380
:1008D000CE002521AE1B8B17BD0B632CAE018B1BED
:1008E000AE178B130C30CF000130D000FE20AE1BB2
:1008F0008B173B08063C0318C22C3B080A3C031C20
:10090000C22C3B080A3C0339BE00BF000630C000C1
:10091000C2222108BF00C000400868200038031927
:100920009B2CC00AAE018B1BAE178B13CE0025216A
:10093000AE1B8B178C2C3812380883168700831255
:1009400007120230BC00AE018B1BAE178B13FA30BE
:10095000CB003F22AE1B8B17BC0BA32C38123808E0
:1009600083168700831207160230BC00AE018B1B72
:10097000AE178B13FA30CB003F22AE1B8B17BC0B8C
:10098000B62C922D3B08023C03180B2D3B08063C6D
:10099000031C0B2D3B080A3C0339BE00BF00063088
:1009A000C000C2222108BF00C000400868200038F3
:1009B0000319E42CC00AAE018B1BAE178B13CE00BB
:1009C0002521AE1B8B17D52C3812380883168700CB
:1009D000831207120230BC00AE018B1BAE178B13C3
:1009E000FA30CB003F22AE1B8B17BC0BEC2C38121D
:1009F000380883168700831207160230BC00AE0148
:100A00008B1BAE178B13FA30CB003F22AE1B8B171C
:100A1000BC0BFF2C922D3B08023C0319112D3B0B04
:100A2000672D1830BC003C08682000380319222DBF
:100A3000BC0AAE018B1BAE178B13CE002521AE1B5B
:100A40008B17132D3812380883168700831207126C
:100A5000AE018B1BAE178B136430CB003F22AE1B55
:100A60008B17381238088316870083120716AE01D9
:100A70008B1BAE178B13C830CB003F22AE1B8B17DE
:100A80003812380883168700831207120230BC0020
:100A9000AE018B1BAE178B139630CB003F22AE1BE3
:100AA0008B17BC0B482D3812380883168700831229
:100AB00007160230BC00AE018B1BAE178B13C8307B
:100AC000CB003F22AE1B8B17BC0B5B2D922D1E3033
:100AD000BC003C08682000380319782DBC0AAE0120
:100AE0008B1BAE178B13CE002521AE1B8B17692DE8
:100AF0003812380883168700831207120430BC00AE
:100B0000AE018B1BAE178B13FA30CB003F22AE1B0E
:100B10008B17BC0B802D3812380883168700831280
:100B20000716942DBB03312C0030B80083168700C4
:100B30005930831287008316881183128811B701F8
:100B40000030B800831687003930831287000130E7
:100B5000B200B401381238088316870083120712D6
:100B6000AE018B1BAE178B136430CB003F22AE1B44
:100B70008B17381238088316870083120716013046
:100B8000B600B90139080E3C031CDD2D0430BB0052
:100B9000AE018B1BAE178B13FA30CB003F22AE1B7E
:100BA0008B17BB0BC82DB40AAE018B1BAE178B1372
:100BB0007E21AE1B8B17B90AC22DB6013008BB00CF
:100BC0002F08BC00BC08031DE72D0130BC003B080A
:100BD000BF000A30C000C222AE018B1BAE178B13C0
:100BE0002108CE003C08CF001021AE1B8B17210836
:100BF000BD003D080D3C031C012E1E30A1000C2E33
:100C00000C2E3D08103C031C092E2330A1000C2E95
:100C10000C2E2830A1000C2E2108BA000F30B9008C
:100C20003A08390203182B2E0430BB00AE018B1B8F
:100C3000AE178B13FA30CB003F22AE1B8B17BB0BCA
:100C4000162EB40AAE018B1BAE178B137E21AE1B82
:100C50008B17B90A102EB2010030B8008316870036
:100C60009930831287000C30BB00AE018B1BAE178E
:100C70008B13FA30CB003F22AE1B8B17BB0B352EEC
:100C8000AF01370BC72F0030B800831687005130F3
:100C9000831287008316881183128815AE018B1B7F
:100CA000AE178B130C30CE002521AE1B8B170A30EC
:100CB000BB00AE018B1BAE178B130130CF00D000F1
:100CC000FE20AE1B8B17BC013C089020BC0AA00084
:100CD000AE018B1BAE178B132008CE002521AE1B57
:100CE0008B1709303C02031D642EAE018B1BAE171F
:100CF0008B133B08CC001130CD004C21AE1B8B1761
:100D0000AE018B1BAE178B132030CE002521AE1BFE
:100D10008B170430BD002D30AE018B1BAE178B132B
:100D2000CE002521AE1B8B17BD0B8B2EAE018B1B6E
:100D3000AE178B130C30CF000130D000FE20AE1B5D
:100D40008B173B08063C0318EA2E3B080A3C031CA1
:100D5000EA2E3B080A3C0339BE00BF000630C00043
:100D6000C2222108BF00C0004008682000380319D3
:100D7000C32EC00AAE018B1BAE178B13CE002521EC
:100D8000AE1B8B17B42E38123808831687008312D7
:100D900007120230BC00AE018B1BAE178B13FA306A
:100DA000CB003F22AE1B8B17BC0BCB2E3812380862
:100DB00083168700831207160230BC00AE018B1B1E
:100DC000AE178B13FA30CB003F22AE1B8B17BC0B38
:100DD000DE2EBA2F3B08023C0318332F3B08063C9B
:100DE000031C332F3B080A3C0339BE00BF0006300A
:100DF000C000C2222108BF00C0004008682000389F
:100E000003190C2FC00AAE018B1BAE178B13CE003B
:100E10002521AE1B8B17FD2E38123808831687004C
:100E2000831207120230BC00AE018B1BAE178B136E
:100E3000FA30CB003F22AE1B8B17BC0B142F38129D
:100E4000380883168700831207160230BC00AE01F3
:100E50008B1BAE178B13FA30CB003F22AE1B8B17C8
:100E6000BC0B272FBA2F3B08023C0319392F3B0B31
:100E70008F2F1830BC003C086820003803194A2F17
:100E8000BC0AAE018B1BAE178B13CE002521AE1B07
:100E90008B173B2F381238088316870083120712EE
:100EA000AE018B1BAE178B136430CB003F22AE1B01
:100EB0008B17381238088316870083120716AE0185
:100EC0008B1BAE178B13C830CB003F22AE1B8B178A
:100ED0003812380883168700831207120230BC00CC
:100EE000AE018B1BAE178B139630CB003F22AE1B8F
:100EF0008B17BC0B702F38123808831687008312AB
:100F000007160230BC00AE018B1BAE178B13C83026
:100F1000CB003F22AE1B8B17BC0B832FBA2F1E308A
:100F2000BC003C08682000380319A02FBC0AAE01A1
:100F30008B1BAE178B13CE002521AE1B8B17912F69
:100F40003812380883168700831207120430BC0059
:100F5000AE018B1BAE178B13FA30CB003F22AE1BBA
:100F60008B17BC0BA82F3812380883168700831202
:100F70000716BC2FBB03592E0030B800831687001C
:100F80005930831287008316881183128811762BBB
:020F90006300FC
:02400E00F93F78
:00000001FF
;PIC16F874
